:020000040800F2
:1000000028080020310200083109000841080008D2
:100010002D09000869060008E7100008000000002C
:100020000000000000000000000000000D0B0008B0
:100030006D06000800000000C1090008650C0008FA
:100040004B0200084B0200084B0200084B0200085C
:100050004B0200084B020008710600084B02000822
:100060004B0200084B0200084B0200084B0200083C
:100070004B0200084B0200084B0200084B0200082C
:100080004B0200084B0200084B0200084B0200081C
:100090004B0200084B0200084B0200084B0200080C
:1000A0004B0200084B0200084B0200084B020008FC
:1000B000D10C0008010D00084B0200084B0200089B
:1000C0004B0200084B0200084B0200084B020008DC
:1000D0004B020008FD0D00086D0E00084B020008E1
:1000E0004B0200084B0200084B0200084B020008BC
:1000F0004B0200084B0200084B0200084B020008AC
:100100004B0200084B0200084B0200084B0200089B
:100110004B0200084B0200084B0200084B0200088B
:100120004B0200084B0200084B0200084B0200087B
:100130004B0200084B0200084B0200084B0200086B
:100140004B0200084B0200084B0200084B0200085B
:100150004B0200084B0200084B0200084B0200084B
:100160004B0200084B0200084B0200084B0200083B
:100170004B0200084B0200084B0200084B0200082B
:100180004B0200084B02000800F002F800F041F8B2
:100190000AA090E8000C82448344AAF10107DA45E2
:1001A00001D100F036F8AFF2090EBAE80F0013F0F3
:1001B000010F18BFFB1A43F001031847EC1C0000A5
:1001C0000C1D0000103A24BF78C878C1FAD8520735
:1001D00024BF30C830C144BF04680C6070470000C1
:1001E0000023002400250026103A28BF78C1FBD840
:1001F000520728BF30C148BF0B607047782900F014
:100200006D80002070471FB501F02CFE1FBD10B59A
:1002100010BD00F0B7F91146FFF7F5FF01F010F837
:1002200000F0D5F903B4FFF7F2FF03BC00F064FF60
:100230000948804709480047FEE7FEE7FEE7FEE77A
:10024000FEE7FEE7FEE7FEE7FEE7FEE704480549B6
:10025000054A064B70470000690C00088901000838
:10026000280200202808002028040020280400205C
:10027000704700000FB4044910B503AA029800F0BB
:1002800053F910BC5DF814FB1C00002070B5044647
:1002900085690068C10601D5302600E02026C00728
:1002A00007D070BDD4E9012130469047206A401C38
:1002B00020626D1EF6D570BD70B504468569007864
:1002C000C00707D170BDD4E9012120209047206AE2
:1002D000401C20626D1EF6D570BD000070B504464E
:1002E0000D4621461068AFF300802188090502D52C
:1002F0000F4A7A4402E00E4A7A440E32002104F199
:10030000240305E000F00F060009965D5E54491CC9
:100310000028F7D120780023000704D5702D02D0E3
:1003200009B1022311322046BDE8704000F0A2B8A6
:10033000781B00002DE9F05F894604464FF0000A63
:10034000DFF824B1FB44C0F820A02046E1688847CC
:1003500000287DD0252806D0D4E901219047206AC5
:10036000401C2062F1E700255F462046E16888478F
:100370002028064607DB312E05D2B81910F8200CCC
:1003800008B10543F1E7A80701D525F00405C4F835
:100390001CA00027C4F818A02A2E09D0304600F06F
:1003A000A4FE38B304EB8708303EC8F8186019E0A3
:1003B00059F8041B204604EB87029161E1688847E5
:1003C000012F064618D1E069002820DA25F0200523
:1003D0001DE0D8F8180000EB800006EB4000303834
:1003E000C8F818002046E1688847064600F07DFE00
:1003F0000028EED1012F0AD02E2E08D12046E16828
:1004000088477F1C0646022F45F02005C4DBA06903
:10041000002803DA404245F00105A061E80701D059
:1004200025F01005A6B1A6F14100192802D8203602
:1004300045F400654A463146204625604D46FFF7A3
:10044000DDFE60B1012807D0ED1D25F0070000E0BA
:1004500007E000F1080978E705F1040975E730467F
:100460007AE7206ABDE8F09F4E1B00007047704796
:10047000704770472DE9F0470D469946924604466D
:1004800000F124080168880604D5E06921F0100114
:10049000216000E00120A84201DD471B00E00027A9
:1004A000A1697A1902EB0900081AA0612078C00638
:1004B00002D42046FFF7EAFE002608E0D4E9012135
:1004C0001AF806009047206A401C761C20624E45B0
:1004D000F4DB2078C0060AD52046FFF7D7FE06E0F9
:1004E000D4E9012130209047206A401C2062381E48
:1004F000A7F10107F4DC07E0D4E9012118F80500B1
:100500009047206A401C2062281EA5F10105F3DCFB
:100510002046FFF7D1FE2078000602D50220BDE874
:10052000F0870120FBE70000074B70B50D467B44C8
:1005300000F011F80446284600F020F810B14FF002
:10054000FF3070BD204670BDF30C000001694A1CED
:1005500002610878704700B58FB0CDE90131002104
:10056000059105497944CDE9031011466846FFF726
:10057000E1FE0FB000BD0000E5FFFFFF007B00F0D3
:1005800080007047754600F02BF8AE4605006946BE
:10059000534620F00700854618B020B5FFF756FEF9
:1005A000BDE820404FF000064FF000074FF0000874
:1005B0004FF0000B21F00701AC46ACE8C009ACE8F5
:1005C000C009ACE8C009ACE8C0098D46704710B559
:1005D0000446AFF300802046BDE81040FFF722BE7E
:1005E00000487047C40100201CB50121402000F0E4
:1005F000E9F9012000908DF8040000208DF8060034
:1006000003208DF8050001208DF807006946044895
:1006100000F09EF80121024800F00EF91CBD000018
:100620000018024010B50446012C04D101210448F1
:1006300000F004F903E00121014800F0FDF810BDCD
:100640000018024010B50121064800F0ECF820B96E
:100650000121044800F0F2F803E00121014800F014
:10066000EBF810BD0018024000BFFEE77047000025
:1006700010B50A2000F06EFD01210B4800F0D3F800
:1006800001280CD100F0F6F808480078012803D1C1
:1006900000200649087002E001200449087001208A
:1006A00000F006F810BD000000000240000000202D
:1006B0000149086070470000143C014000212349B3
:1006C0008279002A3AD00A46126803689A430B4698
:1006D0001A600A1D126803689A430B1D1A6002799A
:1006E00011440A6803681A430A60184A08321268FB
:1006F00003689A43154B08331A601A1D1268036881
:100700009A43124B0C331A604279102A0ED11A1FE9
:10071000126803681A430D4B08331A601A1D1268D9
:1007200003681A43094B0C331A600DE007494279FC
:1007300011440A6803681A430A6005E0027911440B
:100740000A6803689A430A6070470000003C014051
:10075000F0B50A4600210023002400BF3DE001253A
:1007600005FA01F3156805EA03049C4234D10568D3
:100770004F000326BE40B543056015794E00B540D5
:100780000668354305601579012D02D01579022DD3
:1007900016D185684F000326BE40B5438560557964
:1007A0004E00B540866835438560456801268E4019
:1007B000B5434560456896798E40B6B2354345608D
:1007C000C5684F000326BE40B543C560D5794E00CD
:1007D000B540C6683543C560491C1029BFD3F0BD7C
:1007E000F0B5002300244D07ED0E02FA05F3CE10FC
:1007F00000F1200555F826504E07F70E0F26BE4093
:10080000B543CF1000F1200646F82750CE1000F176
:10081000200555F8265045EA0304CE1000F12005C6
:1008200045F82640F0BD0246002013690B400BB18D
:10083000012000E00020704741837047018370472A
:1008400000BFFEE71CB50121084600F0BBF80120FF
:10085000009000208DF8040003208DF80500022090
:100860008DF8070069460248FFF772FF1CBD0000C3
:100870000000024010B54FF400710848FFF7D3FFA5
:1008800028B94FF400710548FFF7D8FF04E04FF492
:1008900000710248FFF7D0FF10BD000000040240C5
:1008A0001CB50121022000F08DF840F201200090DB
:1008B00001208DF8040000208DF8060003208DF83B
:1008C000050001208DF8070069460648FFF740FF44
:1008D00001210448FFF7B2FF4FF400710148FFF710
:1008E000ADFF1CBD0004024010B50446012C04D12C
:1008F00001210448FFF7A0FF03E001210148FFF7B1
:100900009DFF10BD0004024010B501210648FFF70D
:100910008AFF20B901210448FFF790FF03E001217D
:100920000148FFF789FF10BD0004024000BFFEE749
:100930007047000070B5002100230F22C4781CB35B
:10094000174C246804F4E064C4F5E064C4F30721A0
:10095000C1F10404E3B20A4144789C40E1B28478D6
:10096000144021430C07210E0E4C05786155047884
:1009700004F01F050124AC4005786D11AD0005F1B0
:10098000E025C5F8004109E0047804F01F050124C2
:10099000AC40054D0678761145F8264070BD000044
:1009A0000CED00E000E400E080E100E002490143DA
:1009B000024A1160704700000000FA050CED00E0EB
:1009C0007047000029B1064A12680243044B1A60BE
:1009D00004E0034A12688243014B1A60704700002A
:1009E0003038024029B1064A12680243044B1A60AB
:1009F00004E0034A12688243014B1A60704700000A
:100A00004038024029B1064A12680243044B1A607A
:100A100004E0034A12688243014B1A6070470000E9
:100A200044380240F0B500210022002402250026AF
:100A30000223324F3F6807F00C0121B1042905D091
:100A4000082937D105E02E4F076036E02D4F0760AB
:100A500033E02A4F3F1F3F68C7F38056274F3F1FA1
:100A60003F6807F03F036EB1264FB7FBF3F7DFF89F
:100A70008CC0ACF1040CDCF800C0CCF3881C07FB84
:100A80000CF40CE01E4FB7FBF3F7DFF870C0ACF1CD
:100A9000040CDCF800C0CCF3881C07FB0CF4174FE7
:100AA0003F1F3F68C7F301477F1C7D00B4FBF5F78C
:100AB000076002E0124F076000BF00BF0F4F3F68A2
:100AC00007F0F0010909104F7A5C0768D7404760CA
:100AD0000A4F3F6807F4E051890A0B4F7A5C476878
:100AE000D7408760054F3F6807F46041490B064FC8
:100AF0007A5C4768D740C760F0BD00000838024004
:100B00000024F40000127A00050000207047000065
:100B100030B500228B071C0F0F2303FA04F20B4B96
:100B20008C1053F824309343084C8D1044F8253032
:100B300023468C1053F824308C07240F00FA04F459
:100B40002343024C8D1044F8253030BD0838014055
:100B50000CB50020019000903448006840F48030CB
:100B60003249086000BF3148006800F4003000904E
:100B70000198401C0190009818B90198B0F5A04F59
:100B8000F1D12A48006800F4003010B10120009033
:100B900001E0002000900098012846D12348403011
:100BA000006840F0805021494031086020480068CA
:100BB00040F440401E4908601C48083000681B494A
:100BC000083108600846006840F4004008600846A4
:100BD000006840F4A05008601648091F0860081F0C
:100BE000006840F08070091F086000BF0F4800686F
:100BF00000F000700028F9D040F205700E4908603E
:100C00000A480830006820F00300084908310860ED
:100C10000846006840F00200086000BF0348083042
:100C2000006800F00C000828F8D10CBD0038024024
:100C30000070004008544007003C0240042808D1DE
:100C40004FF0E021096941F004014FF0E022116109
:100C500007E04FF0E021096921F004014FF0E022A4
:100C6000116170477047000010B51548006840F4E6
:100C70007000134908601348006840F001001149F2
:100C8000086000200F49083108600E4800680E49CE
:100C900008400C4908600D48091D0860081F0068DD
:100CA00020F48020091F0860002006490C310860EC
:100CB000FFF74EFF4FF0006001498039086010BD1A
:100CC00088ED00E000380240FFFFF6FE10300024FF
:100CD00010B50121880700F034F801280DD100215A
:100CE000800700F022F80121880700F01BF8034874
:100CF000008840F400400149088010BD2000002019
:100D000010B50121064800F01CF8012807D1012187
:100D1000034800F007F8FFF7F7FDFFF793FC10BD5D
:100D200000040040CA430282704721B1028842F0A9
:100D30000102028004E002884FF6FE731A4002802E
:100D4000704730B50246002000230024158A05EACA
:100D50000103958905EA010413B10CB1012000E0FB
:100D6000002030BD1AB183890B43838102E083895F
:100D70008B4383817047000000220288184B984201
:100D80000ED0184B98420BD0B0F1804F08D0164BC4
:100D9000984205D0154B984202D0154B984204D189
:100DA0004FF68F731A404B881A43124B984207D064
:100DB000114B984204D04FF6FF431A400B891A4357
:100DC00002804B68C3620B880385054B984202D0B2
:100DD000044B984201D18B7A0386012383827047AA
:100DE00000000140000401400004004000080040F1
:100DF000000C0040001000400014004010B540F20C
:100E00002551174800F0ADF848B34FF08040406AD4
:100E100000204FF08041486201218807FFF785FFDD
:100E20000F4800F057F904460E48008800F40040CF
:100E300080B90C490988C1F30D010B4A5454094883
:100E40000088401C0749088008460088C72801DD43
:100E50000020088040F22551014800F05AF810BDEA
:100E600000100140200000203400002010B540F2A6
:100E70002551204800F075F8002839D01D4800F0B1
:100E800029F9C4B21C48008800F4004058BB1A4835
:100E9000008800F4804060B10A2C03D0002016497D
:100EA000088020E01448008840F40040124908807F
:100EB00019E00D2C06D11048008840F480400E49FE
:100EC000088010E00C480088C0F30D000B490C545A
:100ED00009480088401C0849088008460088C7283F
:100EE00001DD0020088040F22551024800F011F891
:100EF00010BD00000044004022000020FC00002043
:100F000001F40072B2F5007F00D100BFCA43028035
:100F1000704710B50022002340F66A14A14200D1A8
:100F200000BF0A1201249440A3B2DC43048010BD28
:100F300021B1828942F40052828104E082894DF617
:100F4000FF731A408281704702460020B1F5007F8E
:100F500000D100BF13880B400BB1012000E000203E
:100F6000704770B50246002400230025002040F69B
:100F70006A16B14200D100BFC1F3421501F01F0350
:100F8000012606FA03F3012D02D19689334006E0CB
:100F9000022D02D1168A334001E0968A33400C12AA
:100FA000012606FA04F41688344013B10CB101206E
:100FB00000E0002070BDF0B50346002400260025A7
:100FC000002040F66A17B94200D100BF1846C1F3AD
:100FD000421401F01F06012707FA06F5012C01D182
:100FE0000C3004E0022C01D1103000E014301AB1B2
:100FF00007682F43076002E00768AF430760F0BD52
:101000002DE9FF4705460E460024A14600BFA04635
:10101000B08900B100BF2C8A24F44054F088044306
:101020002C82AC8941F20C608443B088318908433A
:10103000718908430443AC81AC8A24F44074B089BC
:101040000443AC826846FFF7EDFC2048854202D09D
:101050001F48854202D1DDF80C9001E0DDF80890D0
:10106000A88900F4004040B109EBC90000EB091069
:1010700031684900B0FBF1F707E009EBC90000EB6C
:10108000091031688900B0FBF1F76420B7FBF0F07C
:1010900004012009642101FB1078A88900F40040B4
:1010A00040B1322000EBC800B0FBF1F000F00700C7
:1010B000044308E0322000EB08106421B0FBF1F09B
:1010C00000F00F0004432C81BDE8FF8700100140B1
:1010D0000014014001468888C0F308007047C1F33E
:1010E00008028280704700BFFEE730380A2801D22C
:1010F000012070470020704700BF70470146002064
:1011000004E00022034B1A54421C90B28842F8DBE0
:10111000704700003400002010B504466FF0040052
:10112000FFF78CFDE11704EB5171C1F3C701074ACA
:1011300011701046007800EB4001C1EBC0104FF673
:10114000FF7101EAC0000249088010BD16000020AE
:101150001800002070B504464FF4077094FBF0F0BF
:10116000C6B24FF4077094FBF0F100FB114085B25A
:1011700005E04FF4077000F009F8701EC6B2002EAB
:10118000F7D115B1284600F001F870BD0146114AAB
:1011900012884A434FF0E0235A6100229A611A46AE
:1011A000126942F001021A6100BF4FF0E02210699B
:1011B00000F001021AB100F48032002AF5D04FF09D
:1011C000E022126922F001024FF0E0231A610022AE
:1011D0009A617047180000200EB501218803FFF7BF
:1011E00011FC00210846FFF793FC0120009000202D
:1011F0008DF8040008208DF8050001208DF8060008
:101200006846FFF75BFA06208DF8080000208DF88D
:10121000090001208DF80A008DF80B0002A8FFF7E5
:1012200089FB0EBD00BF054A128802F04002002A69
:10123000F9D0C2B2014B1B1D1A8070470044004018
:101240004FF4A060FFF7B2FB4820FFF765FF4FF4B3
:10125000E13000F03FFD4FF4E13000F0A9FD00F077
:10126000D7FC00F003FDFFF7B7FFFFF719FBFFF70F
:10127000E9FAFFF7B9F900F02BFA044612E0012C65
:1012800010D109E000F010F80546012D03D102202D
:1012900000F01CF901E000BFF4E700BF41F2883024
:1012A000FFF758FFEBE70000FEB5002700260025FA
:1012B000002400208DF800008DF80100FF208DF83B
:1012C000020004208DF80300FC208DF80400D420D7
:1012D0008DF805004A208DF8060001208DF80700E2
:1012E00000208DF80800E1208DF8090000208DF81D
:1012F0000A0049A0FEF7BEFF8AE050A0FEF7BAFF41
:10130000002406E01DF804104FA0FEF7B3FF601C98
:10131000C4B20B2CF6DB48A0FEF7ACFF18216846E0
:1013200000F02EFDC820FFF715FF4948008800F4A3
:10133000004000286CD046480578182D4ADD0B2463
:1013400005E04448005D3044C6B2601CC4B2A81E2B
:10135000A042F6DC7042C7B2A81E3E49085CB84203
:1013600056D13DA0FEF786FF002406E03948015D16
:1013700035A0FEF77FFF601CC4B2AC42F6DB3AA09A
:10138000FEF778FF3AA0FEF775FF3248C07C42496D
:1013900008703048007D48702E48407D88702D4888
:1013A000807DC8703DA0FEF765FF002406E03A4846
:1013B000015D25A0FEF75EFF601CC4B2042CF6DBC5
:1013C00029A0FEF757FF0020214908802846FFF793
:1013D00095FE1EE020A0FEF74DFF002406E01D480C
:1013E000015D19A0FEF746FF601CC4B2AC42F6DBFB
:1013F0001DA0FEF73FFF2DA0FEF73CFF0020144983
:1014000008802846FFF77AFE4FF4FA70FFF7A2FE35
:1014100073E700BF0120FEBD0D0A20537461727492
:1014200020496E4C697374506173736976655461B9
:1014300072676574202E2E2E0D0A00000D0A2053AF
:10144000656E643A2000000025303258200000000C
:1014500020000020340000200D0A205265636976C8
:1014600065643A20000000000D0A0D0A000000002B
:101470000D0A20496E4C6973745061737369766507
:1014800054617267657420537563636573732121BA
:1014900021200D0A00000000010000200D0A205448
:1014A0006172676574205549443A20000D0A20573F
:1014B000616974696E6720466F7220546172676556
:1014C00074202E2E2E200D0A000000002DE9F04180
:1014D0008AB007464FF000080026002500240020AF
:1014E0008DF810008DF81100FF208DF812000F20EC
:1014F0008DF81300F1208DF81400D4208DF815001C
:1015000040208DF8160001208DF8170060208DF81E
:1015100018008DF81970FF208DF81A008DF81B0047
:101520008DF81C008DF81D008DF81E008DF81F0031
:10153000494800788DF82000474840788DF8210010
:10154000454880788DF822004348C0788DF8230004
:10155000052405E004A8005D3044C6B2601CC4B296
:10156000142CF7DB7042C0B28DF8240000208DF8F7
:1015700025003AA0FEF77EFE40A0FEF77BFE002489
:1015800006E004A8015D40A0FEF774FE601CC4B232
:10159000162CF6DB3EA0FEF76DFE162104A800F027
:1015A000EFFBC820FFF7D6FD3A48008800F4004062
:1015B00000284DD000263748057837A0FEF75AFEA0
:1015C000002406E03848015D2FA0FEF753FE601CA2
:1015D000C4B2AC42F6DB2EA0FEF74CFE0F2D37DD79
:1015E0000B2405E03048005D3044C6B2601CC4B234
:1015F000A81EA042F6DC704200F0FF08A81E2A498F
:10160000085C404524D10846407B08BB27A0FEF774
:1016100031FE00201F4908802846FFF76FFD2B4848
:101620000078012803D1384600F01CF910E00F20A3
:101630008DF80000012404E000200DF80400601C77
:10164000C4B2102CF8DB6946384600F001FA00BF3E
:101650000AB0BDE8F0810000010000200D0A20530F
:1016600074617274205073645665726966794B6553
:101670007942202E2E2E0D0A000000000D0A205364
:10168000656E643A200000002530325820000000CA
:101690000D0A0000200000200D0A205265636976C3
:1016A00065643A2000000000340000200D0A20503C
:1016B00073645665726966794B6579422053756328
:1016C00063657373212121200D0A000000000020B2
:1016D000F0B587B0002700260025002455208DF89E
:1016E00004008DF8050000208DF806008DF8070035
:1016F0008DF808008DF809008DF80A008DF80B00B0
:101700008DF80C008DF80D008DF80E008DF80F008F
:101710008DF810008DF811008DF812008DF813006F
:10172000FF208DF8140003208DF81500FD208DF8A2
:101730001600D4208DF8170014208DF81800012011
:101740008DF8190017208DF81A0000208DF81B0065
:101750002AA0FEF78FFD4CE02FA0FEF78BFD0024A2
:1017600006E001A8015D2FA0FEF784FD601CC4B255
:10177000182CF6DB2DA0FEF77DFD182101A800F046
:10178000FFFAC820FFF7E6FC2A48008800F4004072
:1017900000282ED0274805780E2D2ADD0B2405E0E1
:1017A0002548005D3044C6B2601CC4B20D2CF7DB86
:1017B0007042C7B22048407BB8421AD11FA0FEF742
:1017C00059FD002406E01C48015D16A0FEF752FDFD
:1017D000601CC4B2AC42F6DB14A0FEF74BFD1BA0AC
:1017E000FEF748FD0020134908802846FFF786FCD5
:1017F00000E0B1E700BF012007B0F0BD0D0A2053A3
:10180000746172742057616B65557020504E35338A
:1018100032202E2E2E0D0A000D0A2053656E643ADA
:101820002000000025303258200000000D0A0D0A6B
:101830000000000020000020340000200D0A20528B
:101840006563697665643A20000000000D0A205740
:10185000616B655570205375636365737321212136
:10186000200D0A002DE9FE4307464FF00008002630
:101870000025002400208DF800008DF80100FF20D5
:101880008DF8020005208DF80300FB208DF8040080
:10189000D4208DF8050040208DF8060001208DF839
:1018A000070030208DF808008DF80970052405E048
:1018B0001DF804003044C6B2601CC4B20A2CF7DB29
:1018C0007042C0B28DF80A0000208DF80B0040A0D5
:1018D000FEF7D0FC78E045A0FEF7CCFC002406E043
:1018E0001DF8041044A0FEF7C5FC601CC4B20C2C0B
:1018F000F6DB43A0FEF7BEFC0C21684600F040FA80
:10190000C820FFF727FC3F48008800F4004000286B
:101910005AD000263B4805783BA0FEF7ABFC0024DC
:1019200006E03D48015D34A0FEF7A4FC601CC4B293
:10193000AC42F6DB32A0FEF79DFC1F2D44DD0B24EC
:1019400005E03548005D3044C6B2601CC4B2A81E34
:10195000A042F6DC704200F0FF08A81E2E49085C89
:10196000404531D10846407B00282DD12BA0FEF701
:1019700081FC0E2407E02848015DA4F10E002E4AE8
:101980001154601CC4B21E2CF5DB2CA0FEF772FCB7
:10199000002406E02848015D17A0FEF76BFC601CE0
:1019A000C4B2102CF6DB00212848FFF7BEF9012055
:1019B000FEF79AFF0020FEF735FE0020114908804F
:1019C0002846FFF79BFB00E085E700BFBDE8FE83EC
:1019D0000D0A205374617274205265616420446161
:1019E0007461202E2E2E0D0A000000000D0A2053D7
:1019F000656E643A20000000253032582000000057
:101A00000D0A0000200000200D0A2052656369764F
:101A100065643A2000000000340000200D0A2052C6
:101A200065616420446174612053756363657373F9
:101A3000212121200D0A0000240000200D0A20523F
:101A40006561646564446174613A2000000400408B
:101A50002DE9F04387B0074688464FF0000900267D
:101A60000025002400208DF800008DF80100FF20E3
:101A70008DF8020015208DF80300EB208DF804008E
:101A8000D4208DF8050040208DF8060001208DF847
:101A90000700A0208DF808008DF8097000BF07E04E
:101AA00018F8041004F10A000DF80010601CC4B20C
:101AB000102CF5DB052405E01DF804003044C6B207
:101AC000601CC4B21A2CF7DB7042C0B28DF81A0049
:101AD00000208DF81B0033A0FEF7CCFB5DE038A0A2
:101AE000FEF7C8FB002406E01DF8041037A0FEF73F
:101AF000C1FB601CC4B20C2CF6DB36A0FEF7BAFBAF
:101B00001C21684600F03CF9C820FFF723FB32484F
:101B1000008800F4004000283FD000262E480578B9
:101B20002EA0FEF7A7FB002406E03048015D27A0A9
:101B3000FEF7A0FB601CC4B2AC42F6DB25A0FEF7AA
:101B400099FB0F2D29DD0B2405E02848005D30446A
:101B5000C6B2601CC4B2A81EA042F6DC704200F0FF
:101B6000FF09A81E2149085C484516D10846407B5C
:101B700098B91FA0FEF77EFB00212448FFF7D5F897
:101B80000120FEF7B1FE0020FEF74CFD00201249B7
:101B900008802846FFF7B2FA00E0A0E700BF07B0D0
:101BA000BDE8F0830D0A2053746172742057726986
:101BB00074652044617461202E2E2E0D0A000000F1
:101BC0000D0A2053656E643A20000000253032581B
:101BD000200000000D0A0000200000200D0A205205
:101BE0006563697665643A200000000034000020D7
:101BF0000D0A205772697465204461746120537521
:101C00006363657373212121200D0A0000040040E5
:101C10001FB501210846FEF7E5FE40F2F3100290E1
:101C200042F2CF00ADF804000020ADF80C00ADF892
:101C3000060001A94FF08040FFF79EF801218807B8
:101C4000FFF770F8012211469007FFF78BF81C2070
:101C50008DF8000000208DF801008DF802000120B1
:101C60008DF803006846FEF765FE1FBD1FB5012114
:101C70000220FEF7B7FE40F6B730029042F2CF00E6
:101C8000ADF804000020ADF80C00ADF8060001A985
:101C90000F48FFF771F801210D48FFF743F80122C3
:101CA00011460B48FFF75EF81D208DF80000032059
:101CB0008DF801008DF8020001208DF803006846C0
:101CC000FEF738FE01210248FFF72FF81FBD000084
:101CD0000004004010B588B0044601210846FEF714
:101CE00071FE01211020FEF78DFE072209212248F6
:101CF000FEF776FD07220A211F48FEF771FD4FF41B
:101D0000C060069002208DF81C008DF81D00002098
:101D10008DF81E0001208DF81F0006A91648FEF759
:101D200017FD02940020ADF80C00ADF80E00ADF8E0
:101D30001000ADF814000C20ADF8120002A90F48F5
:101D4000FFF75EF901210D48FFF7F2F8012240F29A
:101D500025510A48FFF72FF925208DF804000120AE
:101D60008DF805008DF806008DF8070001A8FEF734
:101D7000E1FD08B010BD000000000240001001406D
:101D800070B505460E4600240CE0295D0748FFF7B4
:101D9000A6F900BF40210548FFF7D6F80028F9D082
:101DA000601CC4B2B442F0DB70BD00000010014002
:101DB00010B588B0044601210846FEF703FE012154
:101DC0004804FEF70FFE072202212448FEF708FD13
:101DD000072203212148FEF703FD0C200690022074
:101DE0008DF81C008DF81D0000208DF81E000120CC
:101DF0008DF81F0006A91948FEF7AAFC02940020DE
:101E0000ADF80C00ADF80E00ADF81000ADF8140000
:101E10000C20ADF8120002A91148FFF7F1F80121DA
:101E20000F48FFF785F840210D48FFF769F80122B8
:101E300040F225510A48FFF7BEF826208DF804002D
:101E400002208DF805008DF8060001208DF80700AE
:101E500001A8FEF76FFD08B010BD000000000240B1
:101E6000004400404FF04070E1EE100A70473031FE
:101E700032333435363738394142434445464030B1
:101E80005800303132333435363738396162636463
:101E90006566403078000400000800000000000083
:101EA0000002000100001000C81E00080000002011
:101EB00024000000C4010008EC1E000824000020DB
:101EC00004080000E001000801000000000000001C
:101ED00000010203040102030406070809000000D0
:0C1EE000000000000000000000000000F6
:0400000508000231BC
:00000001FF
